{
  "_format": "hh3-artifact-1",
  "contractName": "QChain",
  "sourceName": "contracts/QChain.sol",
  "abi": [
    {
      "inputs": [],
      "stateMutability": "nonpayable",
      "type": "constructor"
    },
    {
      "anonymous": false,
      "inputs": [
        {
          "indexed": true,
          "internalType": "address",
          "name": "sender",
          "type": "address"
        },
        {
          "indexed": true,
          "internalType": "address",
          "name": "receiver",
          "type": "address"
        },
        {
          "indexed": false,
          "internalType": "uint256",
          "name": "amount",
          "type": "uint256"
        },
        {
          "indexed": false,
          "internalType": "string",
          "name": "note",
          "type": "string"
        }
      ],
      "name": "NewTransaction",
      "type": "event"
    },
    {
      "inputs": [],
      "name": "getAllTransactions",
      "outputs": [
        {
          "components": [
            {
              "internalType": "address",
              "name": "sender",
              "type": "address"
            },
            {
              "internalType": "address",
              "name": "receiver",
              "type": "address"
            },
            {
              "internalType": "uint256",
              "name": "amount",
              "type": "uint256"
            },
            {
              "internalType": "string",
              "name": "note",
              "type": "string"
            }
          ],
          "internalType": "struct QChain.Transaction[]",
          "name": "",
          "type": "tuple[]"
        }
      ],
      "stateMutability": "view",
      "type": "function"
    },
    {
      "inputs": [],
      "name": "owner",
      "outputs": [
        {
          "internalType": "address",
          "name": "",
          "type": "address"
        }
      ],
      "stateMutability": "view",
      "type": "function"
    },
    {
      "inputs": [
        {
          "internalType": "address",
          "name": "_receiver",
          "type": "address"
        },
        {
          "internalType": "uint256",
          "name": "_amount",
          "type": "uint256"
        },
        {
          "internalType": "string",
          "name": "_note",
          "type": "string"
        }
      ],
      "name": "sendTransaction",
      "outputs": [],
      "stateMutability": "nonpayable",
      "type": "function"
    },
    {
      "inputs": [
        {
          "internalType": "uint256",
          "name": "",
          "type": "uint256"
        }
      ],
      "name": "transactions",
      "outputs": [
        {
          "internalType": "address",
          "name": "sender",
          "type": "address"
        },
        {
          "internalType": "address",
          "name": "receiver",
          "type": "address"
        },
        {
          "internalType": "uint256",
          "name": "amount",
          "type": "uint256"
        },
        {
          "internalType": "string",
          "name": "note",
          "type": "string"
        }
      ],
      "stateMutability": "view",
      "type": "function"
    }
  ],
  "bytecode": "0x6080604052348015600e575f5ffd5b50335f5f6101000a81548173ffffffffffffffffffffffffffffffffffffffff021916908373ffffffffffffffffffffffffffffffffffffffff160217905550610d4b8061005b5f395ff3fe608060405234801561000f575f5ffd5b506004361061004a575f3560e01c806327506f531461004e5780638da5cb5b1461006c578063928cb4331461008a5780639ace38c2146100a6575b5f5ffd5b6100566100d9565b604051610063919061070a565b60405180910390f35b610074610278565b6040516100819190610739565b60405180910390f35b6100a4600480360381019061009f91906108e3565b61029c565b005b6100c060048036038101906100bb919061094f565b610429565b6040516100d094939291906109d1565b60405180910390f35b60606001805480602002602001604051908101604052809291908181526020015f905b8282101561026f578382905f5260205f2090600402016040518060800160405290815f82015f9054906101000a900473ffffffffffffffffffffffffffffffffffffffff1673ffffffffffffffffffffffffffffffffffffffff1673ffffffffffffffffffffffffffffffffffffffff168152602001600182015f9054906101000a900473ffffffffffffffffffffffffffffffffffffffff1673ffffffffffffffffffffffffffffffffffffffff1673ffffffffffffffffffffffffffffffffffffffff168152602001600282015481526020016003820180546101e090610a48565b80601f016020809104026020016040519081016040528092919081815260200182805461020c90610a48565b80156102575780601f1061022e57610100808354040283529160200191610257565b820191905f5260205f20905b81548152906001019060200180831161023a57829003601f168201915b505050505081525050815260200190600101906100fc565b50505050905090565b5f5f9054906101000a900473ffffffffffffffffffffffffffffffffffffffff1681565b600160405180608001604052803373ffffffffffffffffffffffffffffffffffffffff1681526020018573ffffffffffffffffffffffffffffffffffffffff16815260200184815260200183815250908060018154018082558091505060019003905f5260205f2090600402015f909190919091505f820151815f015f6101000a81548173ffffffffffffffffffffffffffffffffffffffff021916908373ffffffffffffffffffffffffffffffffffffffff1602179055506020820151816001015f6101000a81548173ffffffffffffffffffffffffffffffffffffffff021916908373ffffffffffffffffffffffffffffffffffffffff1602179055506040820151816002015560608201518160030190816103ba9190610c18565b5050508273ffffffffffffffffffffffffffffffffffffffff163373ffffffffffffffffffffffffffffffffffffffff167f8f9b9aec6a6ff83da4a7082cbc7ba315f2753ef52ea8a7d0cd22e65c197bdf65848460405161041c929190610ce7565b60405180910390a3505050565b60018181548110610438575f80fd5b905f5260205f2090600402015f91509050805f015f9054906101000a900473ffffffffffffffffffffffffffffffffffffffff1690806001015f9054906101000a900473ffffffffffffffffffffffffffffffffffffffff16908060020154908060030180546104a790610a48565b80601f01602080910402602001604051908101604052809291908181526020018280546104d390610a48565b801561051e5780601f106104f55761010080835404028352916020019161051e565b820191905f5260205f20905b81548152906001019060200180831161050157829003601f168201915b5050505050905084565b5f81519050919050565b5f82825260208201905092915050565b5f819050602082019050919050565b5f73ffffffffffffffffffffffffffffffffffffffff82169050919050565b5f61057a82610551565b9050919050565b61058a81610570565b82525050565b5f819050919050565b6105a281610590565b82525050565b5f81519050919050565b5f82825260208201905092915050565b8281835e5f83830152505050565b5f601f19601f8301169050919050565b5f6105ea826105a8565b6105f481856105b2565b93506106048185602086016105c2565b61060d816105d0565b840191505092915050565b5f608083015f83015161062d5f860182610581565b5060208301516106406020860182610581565b5060408301516106536040860182610599565b506060830151848203606086015261066b82826105e0565b9150508091505092915050565b5f6106838383610618565b905092915050565b5f602082019050919050565b5f6106a182610528565b6106ab8185610532565b9350836020820285016106bd85610542565b805f5b858110156106f857848403895281516106d98582610678565b94506106e48361068b565b925060208a019950506001810190506106c0565b50829750879550505050505092915050565b5f6020820190508181035f8301526107228184610697565b905092915050565b61073381610570565b82525050565b5f60208201905061074c5f83018461072a565b92915050565b5f604051905090565b5f5ffd5b5f5ffd5b61076c81610570565b8114610776575f5ffd5b50565b5f8135905061078781610763565b92915050565b61079681610590565b81146107a0575f5ffd5b50565b5f813590506107b18161078d565b92915050565b5f5ffd5b5f5ffd5b7f4e487b71000000000000000000000000000000000000000000000000000000005f52604160045260245ffd5b6107f5826105d0565b810181811067ffffffffffffffff82111715610814576108136107bf565b5b80604052505050565b5f610826610752565b905061083282826107ec565b919050565b5f67ffffffffffffffff821115610851576108506107bf565b5b61085a826105d0565b9050602081019050919050565b828183375f83830152505050565b5f61088761088284610837565b61081d565b9050828152602081018484840111156108a3576108a26107bb565b5b6108ae848285610867565b509392505050565b5f82601f8301126108ca576108c96107b7565b5b81356108da848260208601610875565b91505092915050565b5f5f5f606084860312156108fa576108f961075b565b5b5f61090786828701610779565b9350506020610918868287016107a3565b925050604084013567ffffffffffffffff8111156109395761093861075f565b5b610945868287016108b6565b9150509250925092565b5f602082840312156109645761096361075b565b5b5f610971848285016107a3565b91505092915050565b61098381610590565b82525050565b5f82825260208201905092915050565b5f6109a3826105a8565b6109ad8185610989565b93506109bd8185602086016105c2565b6109c6816105d0565b840191505092915050565b5f6080820190506109e45f83018761072a565b6109f1602083018661072a565b6109fe604083018561097a565b8181036060830152610a108184610999565b905095945050505050565b7f4e487b71000000000000000000000000000000000000000000000000000000005f52602260045260245ffd5b5f6002820490506001821680610a5f57607f821691505b602082108103610a7257610a71610a1b565b5b50919050565b5f819050815f5260205f209050919050565b5f6020601f8301049050919050565b5f82821b905092915050565b5f60088302610ad47fffffffffffffffffffffffffffffffffffffffffffffffffffffffffffffffff82610a99565b610ade8683610a99565b95508019841693508086168417925050509392505050565b5f819050919050565b5f610b19610b14610b0f84610590565b610af6565b610590565b9050919050565b5f819050919050565b610b3283610aff565b610b46610b3e82610b20565b848454610aa5565b825550505050565b5f5f905090565b610b5d610b4e565b610b68818484610b29565b505050565b5b81811015610b8b57610b805f82610b55565b600181019050610b6e565b5050565b601f821115610bd057610ba181610a78565b610baa84610a8a565b81016020851015610bb9578190505b610bcd610bc585610a8a565b830182610b6d565b50505b505050565b5f82821c905092915050565b5f610bf05f1984600802610bd5565b1980831691505092915050565b5f610c088383610be1565b9150826002028217905092915050565b610c21826105a8565b67ffffffffffffffff811115610c3a57610c396107bf565b5b610c448254610a48565b610c4f828285610b8f565b5f60209050601f831160018114610c80575f8415610c6e578287015190505b610c788582610bfd565b865550610cdf565b601f198416610c8e86610a78565b5f5b82811015610cb557848901518255600182019150602085019450602081019050610c90565b86831015610cd25784890151610cce601f891682610be1565b8355505b6001600288020188555050505b505050505050565b5f604082019050610cfa5f83018561097a565b8181036020830152610d0c8184610999565b9050939250505056fea264697066735822122097bc7043732da036f14677e6ba345921458d69bbdce9ed3688b11aaddae438ea64736f6c634300081c0033",
  "linkReferences": {},
  "deployedLinkReferences": {},
  "immutableReferences": {},
  "inputSourceName": "project/contracts/QChain.sol",
  "buildInfoId": "solc-0_8_28-fba583af996b0813209a424435c6b0066cead171"
}